{
  "contractName": "PollBetContract",
  "abi": [
    {
      "anonymous": false,
      "inputs": [
        {
          "indexed": true,
          "internalType": "uint256",
          "name": "pollId",
          "type": "uint256"
        },
        {
          "indexed": false,
          "internalType": "string",
          "name": "pollChoice",
          "type": "string"
        },
        {
          "indexed": true,
          "internalType": "address",
          "name": "user",
          "type": "address"
        },
        {
          "indexed": false,
          "internalType": "uint256",
          "name": "amount",
          "type": "uint256"
        }
      ],
      "name": "BetPlaced",
      "type": "event"
    },
    {
      "anonymous": false,
      "inputs": [
        {
          "indexed": false,
          "internalType": "string",
          "name": "message",
          "type": "string"
        }
      ],
      "name": "Log",
      "type": "event"
    },
    {
      "anonymous": false,
      "inputs": [
        {
          "indexed": true,
          "internalType": "uint256",
          "name": "id",
          "type": "uint256"
        },
        {
          "indexed": true,
          "internalType": "address",
          "name": "winner",
          "type": "address"
        }
      ],
      "name": "PollClosed",
      "type": "event"
    },
    {
      "anonymous": false,
      "inputs": [
        {
          "indexed": true,
          "internalType": "uint256",
          "name": "id",
          "type": "uint256"
        },
        {
          "indexed": true,
          "internalType": "address",
          "name": "creator",
          "type": "address"
        },
        {
          "indexed": false,
          "internalType": "uint256",
          "name": "startTime",
          "type": "uint256"
        },
        {
          "indexed": false,
          "internalType": "uint256",
          "name": "endTime",
          "type": "uint256"
        },
        {
          "indexed": false,
          "internalType": "string[]",
          "name": "options",
          "type": "string[]"
        }
      ],
      "name": "PollCreated",
      "type": "event"
    },
    {
      "anonymous": false,
      "inputs": [
        {
          "indexed": true,
          "internalType": "uint256",
          "name": "pollId",
          "type": "uint256"
        },
        {
          "indexed": false,
          "internalType": "address[]",
          "name": "winners",
          "type": "address[]"
        },
        {
          "indexed": false,
          "internalType": "uint256[]",
          "name": "rewards",
          "type": "uint256[]"
        }
      ],
      "name": "RewardsDistributed",
      "type": "event"
    },
    {
      "anonymous": false,
      "inputs": [
        {
          "indexed": true,
          "internalType": "uint256",
          "name": "pollId",
          "type": "uint256"
        },
        {
          "indexed": true,
          "internalType": "address",
          "name": "voter",
          "type": "address"
        },
        {
          "indexed": false,
          "internalType": "uint256",
          "name": "choice",
          "type": "uint256"
        }
      ],
      "name": "VoteCasted",
      "type": "event"
    },
    {
      "inputs": [
        {
          "internalType": "address",
          "name": "",
          "type": "address"
        }
      ],
      "name": "balances",
      "outputs": [
        {
          "internalType": "uint256",
          "name": "",
          "type": "uint256"
        }
      ],
      "stateMutability": "view",
      "type": "function"
    },
    {
      "inputs": [],
      "name": "betCount",
      "outputs": [
        {
          "internalType": "uint256",
          "name": "",
          "type": "uint256"
        }
      ],
      "stateMutability": "view",
      "type": "function"
    },
    {
      "inputs": [
        {
          "internalType": "uint256",
          "name": "",
          "type": "uint256"
        },
        {
          "internalType": "address",
          "name": "",
          "type": "address"
        }
      ],
      "name": "hasVoted",
      "outputs": [
        {
          "internalType": "bool",
          "name": "",
          "type": "bool"
        }
      ],
      "stateMutability": "view",
      "type": "function"
    },
    {
      "inputs": [
        {
          "internalType": "uint256",
          "name": "",
          "type": "uint256"
        }
      ],
      "name": "pollBetTotal",
      "outputs": [
        {
          "internalType": "uint256",
          "name": "",
          "type": "uint256"
        }
      ],
      "stateMutability": "view",
      "type": "function"
    },
    {
      "inputs": [
        {
          "internalType": "uint256",
          "name": "",
          "type": "uint256"
        },
        {
          "internalType": "address",
          "name": "",
          "type": "address"
        }
      ],
      "name": "pollBets",
      "outputs": [
        {
          "internalType": "uint256",
          "name": "",
          "type": "uint256"
        }
      ],
      "stateMutability": "view",
      "type": "function"
    },
    {
      "inputs": [
        {
          "internalType": "uint256",
          "name": "",
          "type": "uint256"
        },
        {
          "internalType": "uint256",
          "name": "",
          "type": "uint256"
        }
      ],
      "name": "pollBetsList",
      "outputs": [
        {
          "internalType": "uint256",
          "name": "pollId",
          "type": "uint256"
        },
        {
          "internalType": "string",
          "name": "pollChoice",
          "type": "string"
        },
        {
          "internalType": "address",
          "name": "user",
          "type": "address"
        },
        {
          "internalType": "uint256",
          "name": "amount",
          "type": "uint256"
        }
      ],
      "stateMutability": "view",
      "type": "function"
    },
    {
      "inputs": [],
      "name": "pollCount",
      "outputs": [
        {
          "internalType": "uint256",
          "name": "",
          "type": "uint256"
        }
      ],
      "stateMutability": "view",
      "type": "function"
    },
    {
      "inputs": [
        {
          "internalType": "uint256",
          "name": "",
          "type": "uint256"
        }
      ],
      "name": "pollCounts",
      "outputs": [
        {
          "internalType": "uint256",
          "name": "",
          "type": "uint256"
        }
      ],
      "stateMutability": "view",
      "type": "function"
    },
    {
      "inputs": [
        {
          "internalType": "uint256",
          "name": "",
          "type": "uint256"
        },
        {
          "internalType": "uint256",
          "name": "",
          "type": "uint256"
        }
      ],
      "name": "pollWinners",
      "outputs": [
        {
          "internalType": "uint256",
          "name": "",
          "type": "uint256"
        }
      ],
      "stateMutability": "view",
      "type": "function"
    },
    {
      "inputs": [
        {
          "internalType": "uint256",
          "name": "",
          "type": "uint256"
        },
        {
          "internalType": "address",
          "name": "",
          "type": "address"
        }
      ],
      "name": "voters",
      "outputs": [
        {
          "internalType": "uint256",
          "name": "pollId",
          "type": "uint256"
        },
        {
          "internalType": "address",
          "name": "voterAddress",
          "type": "address"
        },
        {
          "internalType": "uint256",
          "name": "choice",
          "type": "uint256"
        }
      ],
      "stateMutability": "view",
      "type": "function"
    },
    {
      "inputs": [
        {
          "internalType": "uint256",
          "name": "_startTime",
          "type": "uint256"
        },
        {
          "internalType": "uint256",
          "name": "_endTime",
          "type": "uint256"
        },
        {
          "internalType": "string[]",
          "name": "_options",
          "type": "string[]"
        }
      ],
      "name": "createPoll",
      "outputs": [],
      "stateMutability": "nonpayable",
      "type": "function"
    },
    {
      "inputs": [
        {
          "internalType": "uint256",
          "name": "_pollId",
          "type": "uint256"
        }
      ],
      "name": "getPollVotersCount",
      "outputs": [
        {
          "internalType": "uint256",
          "name": "",
          "type": "uint256"
        }
      ],
      "stateMutability": "view",
      "type": "function"
    },
    {
      "inputs": [
        {
          "internalType": "uint256",
          "name": "_pollId",
          "type": "uint256"
        }
      ],
      "name": "getPollInfo",
      "outputs": [
        {
          "components": [
            {
              "internalType": "uint256",
              "name": "id",
              "type": "uint256"
            },
            {
              "internalType": "address",
              "name": "creator",
              "type": "address"
            },
            {
              "internalType": "uint256",
              "name": "startTime",
              "type": "uint256"
            },
            {
              "internalType": "uint256",
              "name": "endTime",
              "type": "uint256"
            },
            {
              "internalType": "string[]",
              "name": "choices",
              "type": "string[]"
            },
            {
              "internalType": "uint256[]",
              "name": "choiceCounts",
              "type": "uint256[]"
            },
            {
              "internalType": "bool",
              "name": "isOpen",
              "type": "bool"
            }
          ],
          "internalType": "struct PollBetContract.Poll",
          "name": "",
          "type": "tuple"
        }
      ],
      "stateMutability": "view",
      "type": "function"
    },
    {
      "inputs": [
        {
          "internalType": "uint256",
          "name": "_pollId",
          "type": "uint256"
        },
        {
          "internalType": "uint256",
          "name": "_pollChoice",
          "type": "uint256"
        }
      ],
      "name": "voteOnPoll",
      "outputs": [],
      "stateMutability": "nonpayable",
      "type": "function"
    },
    {
      "inputs": [
        {
          "internalType": "uint256",
          "name": "_pollId",
          "type": "uint256"
        },
        {
          "internalType": "bytes32",
          "name": "_pollChoice",
          "type": "bytes32"
        }
      ],
      "name": "betOnPoll",
      "outputs": [],
      "stateMutability": "payable",
      "type": "function"
    },
    {
      "inputs": [
        {
          "internalType": "uint256",
          "name": "_pollId",
          "type": "uint256"
        }
      ],
      "name": "getBetCount",
      "outputs": [
        {
          "internalType": "uint256",
          "name": "",
          "type": "uint256"
        }
      ],
      "stateMutability": "view",
      "type": "function"
    },
    {
      "inputs": [
        {
          "internalType": "uint256",
          "name": "_pollId",
          "type": "uint256"
        }
      ],
      "name": "getTotalBetAmount",
      "outputs": [
        {
          "internalType": "uint256",
          "name": "",
          "type": "uint256"
        }
      ],
      "stateMutability": "view",
      "type": "function"
    },
    {
      "inputs": [
        {
          "internalType": "uint256",
          "name": "_pollId",
          "type": "uint256"
        },
        {
          "internalType": "string",
          "name": "_pollChoice",
          "type": "string"
        }
      ],
      "name": "getOdds",
      "outputs": [
        {
          "internalType": "uint256",
          "name": "",
          "type": "uint256"
        }
      ],
      "stateMutability": "view",
      "type": "function"
    },
    {
      "inputs": [],
      "name": "closePoll",
      "outputs": [],
      "stateMutability": "nonpayable",
      "type": "function"
    },
    {
      "inputs": [],
      "name": "distributeRewards",
      "outputs": [],
      "stateMutability": "nonpayable",
      "type": "function"
    }
  ],
  "bytecode": "0x608060405234801561001057600080fd5b50612bd6806100206000396000f3fe60806040526004361061011f5760003560e01c80638761ad0c116100a0578063a32bde6f11610064578063a32bde6f1461044f578063a9549f0a1461048c578063cf094497146104c9578063d624d6fd146104f4578063ed8c2aed1461051d5761011f565b80638761ad0c1461034f57806391cbfb411461038c5780639207891d146103c95780639b85e14f146103f45780639e319063146104105761011f565b806343859632116100e7578063438596321461025857806346f86716146102955780634c3c234f146102d25780636b7128ec146102fb5780636f4a2cd0146103385761011f565b806306455f5e146101245780630e89da561461016157806327e235e31461019e57806329b8f44a146101db578063420700f614610218575b600080fd5b34801561013057600080fd5b5061014b60048036038101906101469190611a26565b610534565b6040516101589190611a75565b60405180910390f35b34801561016d57600080fd5b5061018860048036038101906101839190611a90565b610559565b6040516101959190611a75565b60405180910390f35b3480156101aa57600080fd5b506101c560048036038101906101c09190611abd565b6105e2565b6040516101d29190611a75565b60405180910390f35b3480156101e757600080fd5b5061020260048036038101906101fd9190611a90565b6105fa565b60405161020f9190611dd0565b60405180910390f35b34801561022457600080fd5b5061023f600480360381019061023a9190611df2565b6107ed565b60405161024f9493929190611e8b565b60405180910390f35b34801561026457600080fd5b5061027f600480360381019061027a9190611a26565b6108e2565b60405161028c9190611ee6565b60405180910390f35b3480156102a157600080fd5b506102bc60048036038101906102b79190611a90565b610911565b6040516102c99190611a75565b60405180910390f35b3480156102de57600080fd5b506102f960048036038101906102f49190611df2565b610929565b005b34801561030757600080fd5b50610322600480360381019061031d9190611a90565b610cbd565b60405161032f9190611a75565b60405180910390f35b34801561034457600080fd5b5061034d610cdd565b005b34801561035b57600080fd5b5061037660048036038101906103719190611a90565b610cdf565b6040516103839190611a75565b60405180910390f35b34801561039857600080fd5b506103b360048036038101906103ae9190611df2565b610d3c565b6040516103c09190611a75565b60405180910390f35b3480156103d557600080fd5b506103de610d6d565b6040516103eb9190611a75565b60405180910390f35b61040e60048036038101906104099190611f37565b610d73565b005b34801561041c57600080fd5b5061043760048036038101906104329190611a26565b611139565b60405161044693929190611f77565b60405180910390f35b34801561045b57600080fd5b5061047660048036038101906104719190611a90565b611190565b6040516104839190611a75565b60405180910390f35b34801561049857600080fd5b506104b360048036038101906104ae9190612013565b6111b4565b6040516104c09190611a75565b60405180910390f35b3480156104d557600080fd5b506104de6112b4565b6040516104eb9190611a75565b60405180910390f35b34801561050057600080fd5b5061051b60048036038101906105169190612284565b6112ba565b005b34801561052957600080fd5b50610532611510565b005b6003602052816000526040600020602052806000526040600020600091509150505481565b6000806000905060005b60066000858152602001908152602001600020805490508110156105d8576006600085815260200190815260200160002081815481106105a6576105a56122f3565b5b906000526020600020906004020160030154826105c39190612351565b915080806105d0906123a7565b915050610563565b5080915050919050565b60056020528060005260406000206000915090505481565b610602611775565b6000600a60008481526020019081526020016000209050806040518060e0016040529081600082015481526020016001820160009054906101000a900473ffffffffffffffffffffffffffffffffffffffff1673ffffffffffffffffffffffffffffffffffffffff1673ffffffffffffffffffffffffffffffffffffffff168152602001600282015481526020016003820154815260200160048201805480602002602001604051908101604052809291908181526020016000905b8282101561076a5783829060005260206000200180546106dd9061241f565b80601f01602080910402602001604051908101604052809291908181526020018280546107099061241f565b80156107565780601f1061072b57610100808354040283529160200191610756565b820191906000526020600020905b81548152906001019060200180831161073957829003601f168201915b5050505050815260200190600101906106be565b505050508152602001600582018054806020026020016040519081016040528092919081815260200182805480156107c157602002820191906000526020600020905b8154815260200190600101908083116107ad575b505050505081526020016006820160009054906101000a900460ff161515151581525050915050919050565b6006602052816000526040600020818154811061080957600080fd5b9060005260206000209060040201600091509150508060000154908060010180546108339061241f565b80601f016020809104026020016040519081016040528092919081815260200182805461085f9061241f565b80156108ac5780601f10610881576101008083540402835291602001916108ac565b820191906000526020600020905b81548152906001019060200180831161088f57829003601f168201915b5050505050908060020160009054906101000a900473ffffffffffffffffffffffffffffffffffffffff16908060030154905084565b60076020528160005260406000206020528060005260406000206000915091509054906101000a900460ff1681565b60026020528060005260406000206000915090505481565b6000600a600084815260200190815260200160002090506007600084815260200190815260200160002060003373ffffffffffffffffffffffffffffffffffffffff1673ffffffffffffffffffffffffffffffffffffffff16815260200190815260200160002060009054906101000a900460ff16156109de576040517f08c379a00000000000000000000000000000000000000000000000000000000081526004016109d59061249d565b60405180910390fd5b8060060160009054906101000a900460ff16610a2f576040517f08c379a0000000000000000000000000000000000000000000000000000000008152600401610a2690612509565b60405180910390fd5b80600201544210158015610a47575080600301544211155b610a86576040517f08c379a0000000000000000000000000000000000000000000000000000000008152600401610a7d90612575565b60405180910390fd5b600082118015610a9c5750806004018054905082105b610adb576040517f08c379a0000000000000000000000000000000000000000000000000000000008152600401610ad2906125e1565b60405180910390fd5b60016007600085815260200190815260200160002060003373ffffffffffffffffffffffffffffffffffffffff1673ffffffffffffffffffffffffffffffffffffffff16815260200190815260200160002060006101000a81548160ff021916908315150217905550600060405180606001604052808581526020013373ffffffffffffffffffffffffffffffffffffffff168152602001848152509050806008600086815260200190815260200160002060003373ffffffffffffffffffffffffffffffffffffffff1673ffffffffffffffffffffffffffffffffffffffff1681526020019081526020016000206000820151816000015560208201518160010160006101000a81548173ffffffffffffffffffffffffffffffffffffffff021916908373ffffffffffffffffffffffffffffffffffffffff16021790555060408201518160020155905050610c328433611512565b816005018381548110610c4857610c476122f3565b5b906000526020600020016000815480929190610c63906123a7565b91905055503373ffffffffffffffffffffffffffffffffffffffff16847fe7ee74ca1f4bb1b82b14f87794c45b3e59c39e372b862fb97a6316b43355b69e85604051610caf9190611a75565b60405180910390a350505050565b600060066000838152602001908152602001600020805490509050919050565b565b60008060009050600060096000858152602001908152602001600020905060005b610d098261153c565b811015610d31578280610d1b906123a7565b9350508080610d29906123a7565b915050610d00565b508192505050919050565b60046020528160005260406000208181548110610d5857600080fd5b90600052602060002001600091509150505481565b60005481565b600a600083815260200190815260200160002060020154421015610dcc576040517f08c379a0000000000000000000000000000000000000000000000000000000008152600401610dc390612673565b60405180910390fd5b600a6000838152602001908152602001600020600301544210610e24576040517f08c379a0000000000000000000000000000000000000000000000000000000008152600401610e1b90612705565b60405180910390fd5b60003411610e67576040517f08c379a0000000000000000000000000000000000000000000000000000000008152600401610e5e90612771565b60405180910390fd5b600080600090505b600a600085815260200190815260200160002060040180549050811015610ef95782600a60008681526020019081526020016000206004018281548110610eb957610eb86122f3565b5b90600052602060002001604051610ed09190612830565b60405180910390201415610ee657809150610ef9565b8080610ef1906123a7565b915050610e6f565b5060008111610f3d576040517f08c379a0000000000000000000000000000000000000000000000000000000008152600401610f34906128df565b60405180910390fd5b34600260008581526020019081526020016000206000828254610f609190612351565b92505081905550346003600085815260200190815260200160002060003373ffffffffffffffffffffffffffffffffffffffff1673ffffffffffffffffffffffffffffffffffffffff1681526020019081526020016000206000828254610fc79190612351565b9250508190555060016000815480929190610fe1906123a7565b919050555060066000848152602001908152602001600020604051806080016040528085815260200161101385611551565b81526020013373ffffffffffffffffffffffffffffffffffffffff1681526020013481525090806001815401808255809150506001900390600052602060002090600402016000909190919091506000820151816000015560208201518160010190805190602001906110879291906117ca565b5060408201518160020160006101000a81548173ffffffffffffffffffffffffffffffffffffffff021916908373ffffffffffffffffffffffffffffffffffffffff1602179055506060820151816003015550503373ffffffffffffffffffffffffffffffffffffffff16837ffa643037cee917ec3049f1ba2bfb5d4df493f0b6db3ed68f3716d11233494e7d61111d85611551565b3460405161112c9291906128ff565b60405180910390a3505050565b6008602052816000526040600020602052806000526040600020600091509150508060000154908060010160009054906101000a900473ffffffffffffffffffffffffffffffffffffffff16908060020154905083565b600b81815481106111a057600080fd5b906000526020600020016000915090505481565b60008060009050600060066000878152602001908152602001600020905060005b818054905081101561127e5785856040516111f1929190612954565b604051809103902082828154811061120c5761120b6122f3565b5b906000526020600020906004020160010160405161122a9190612830565b6040518091039020141561126b5781818154811061124b5761124a6122f3565b5b906000526020600020906004020160030154836112689190612351565b92505b8080611276906123a7565b9150506111d5565b50600061128a87610559565b90506000811161129b5760006112a8565b80836112a7919061299c565b5b93505050509392505050565b60015481565b42925062015180426112cc9190612351565b9150828211611310576040517f08c379a000000000000000000000000000000000000000000000000000000000815260040161130790612a19565b60405180910390fd5b6001815111611354576040517f08c379a000000000000000000000000000000000000000000000000000000000815260040161134b90612a85565b60405180910390fd5b60008151905060008167ffffffffffffffff81111561137657611375612073565b5b6040519080825280602002602001820160405280156113a45781602001602082028036833780820191505090505b5090506000600a6000805481526020019081526020016000209050338160010160006101000a81548173ffffffffffffffffffffffffffffffffffffffff021916908373ffffffffffffffffffffffffffffffffffffffff160217905550428160020181905550620151804261141a9190612351565b81600301819055508381600401908051906020019061143a929190611850565b50818160050190805190602001906114539291906118b0565b5060018160060160006101000a81548160ff021916908315150217905550600b60005490806001815401808255809150506001900390600052602060002001600090919091909150553373ffffffffffffffffffffffffffffffffffffffff166000547f58d87e181e9ac91f8ccda34caaf4c15db2a9fc345a86ea48e378d6e4359dfdb98888886040516114e993929190612b2b565b60405180910390a3600080815480929190611503906123a7565b9190505550505050505050565b565b61153781600960008581526020019081526020016000206116a190919063ffffffff16565b505050565b600061154a826000016116d1565b9050919050565b606060005b60208160ff161080156115a85750600060f81b838260ff166020811061157f5761157e6122f3565b5b1a60f81b7effffffffffffffffffffffffffffffffffffffffffffffffffffffffffffff191614155b156115c05780806115b890612b76565b915050611556565b60008160ff1667ffffffffffffffff8111156115df576115de612073565b5b6040519080825280601f01601f1916602001820160405280156116115781602001600182028036833780820191505090505b509050600091505b80518260ff16101561169757838260ff166020811061163b5761163a6122f3565b5b1a60f81b818360ff1681518110611655576116546122f3565b5b60200101907effffffffffffffffffffffffffffffffffffffffffffffffffffffffffffff1916908160001a905350818061168f90612b76565b925050611619565b8092505050919050565b60006116c9836000018373ffffffffffffffffffffffffffffffffffffffff1660001b6116e2565b905092915050565b600081600001805490509050919050565b60006116ee8383611752565b61174757826000018290806001815401808255809150506001900390600052602060002001600090919091909150558260000180549050836001016000848152602001908152602001600020819055506001905061174c565b600090505b92915050565b600080836001016000848152602001908152602001600020541415905092915050565b6040518060e0016040528060008152602001600073ffffffffffffffffffffffffffffffffffffffff168152602001600081526020016000815260200160608152602001606081526020016000151581525090565b8280546117d69061241f565b90600052602060002090601f0160209004810192826117f8576000855561183f565b82601f1061181157805160ff191683800117855561183f565b8280016001018555821561183f579182015b8281111561183e578251825591602001919060010190611823565b5b50905061184c91906118fd565b5090565b82805482825590600052602060002090810192821561189f579160200282015b8281111561189e57825182908051906020019061188e9291906117ca565b5091602001919060010190611870565b5b5090506118ac919061191a565b5090565b8280548282559060005260206000209081019282156118ec579160200282015b828111156118eb5782518255916020019190600101906118d0565b5b5090506118f991906118fd565b5090565b5b808211156119165760008160009055506001016118fe565b5090565b5b8082111561193a5760008181611931919061193e565b5060010161191b565b5090565b50805461194a9061241f565b6000825580601f1061195c575061197b565b601f01602090049060005260206000209081019061197a91906118fd565b5b50565b6000604051905090565b600080fd5b600080fd5b6000819050919050565b6119a581611992565b81146119b057600080fd5b50565b6000813590506119c28161199c565b92915050565b600073ffffffffffffffffffffffffffffffffffffffff82169050919050565b60006119f3826119c8565b9050919050565b611a03816119e8565b8114611a0e57600080fd5b50565b600081359050611a20816119fa565b92915050565b60008060408385031215611a3d57611a3c611988565b5b6000611a4b858286016119b3565b9250506020611a5c85828601611a11565b9150509250929050565b611a6f81611992565b82525050565b6000602082019050611a8a6000830184611a66565b92915050565b600060208284031215611aa657611aa5611988565b5b6000611ab4848285016119b3565b91505092915050565b600060208284031215611ad357611ad2611988565b5b6000611ae184828501611a11565b91505092915050565b611af381611992565b82525050565b611b02816119e8565b82525050565b600081519050919050565b600082825260208201905092915050565b6000819050602082019050919050565b600081519050919050565b600082825260208201905092915050565b60005b83811015611b6e578082015181840152602081019050611b53565b83811115611b7d576000848401525b50505050565b6000601f19601f8301169050919050565b6000611b9f82611b34565b611ba98185611b3f565b9350611bb9818560208601611b50565b611bc281611b83565b840191505092915050565b6000611bd98383611b94565b905092915050565b6000602082019050919050565b6000611bf982611b08565b611c038185611b13565b935083602082028501611c1585611b24565b8060005b85811015611c515784840389528151611c328582611bcd565b9450611c3d83611be1565b925060208a01995050600181019050611c19565b50829750879550505050505092915050565b600081519050919050565b600082825260208201905092915050565b6000819050602082019050919050565b6000611c9b8383611aea565b60208301905092915050565b6000602082019050919050565b6000611cbf82611c63565b611cc98185611c6e565b9350611cd483611c7f565b8060005b83811015611d05578151611cec8882611c8f565b9750611cf783611ca7565b925050600181019050611cd8565b5085935050505092915050565b60008115159050919050565b611d2781611d12565b82525050565b600060e083016000830151611d456000860182611aea565b506020830151611d586020860182611af9565b506040830151611d6b6040860182611aea565b506060830151611d7e6060860182611aea565b5060808301518482036080860152611d968282611bee565b91505060a083015184820360a0860152611db08282611cb4565b91505060c0830151611dc560c0860182611d1e565b508091505092915050565b60006020820190508181036000830152611dea8184611d2d565b905092915050565b60008060408385031215611e0957611e08611988565b5b6000611e17858286016119b3565b9250506020611e28858286016119b3565b9150509250929050565b600082825260208201905092915050565b6000611e4e82611b34565b611e588185611e32565b9350611e68818560208601611b50565b611e7181611b83565b840191505092915050565b611e85816119e8565b82525050565b6000608082019050611ea06000830187611a66565b8181036020830152611eb28186611e43565b9050611ec16040830185611e7c565b611ece6060830184611a66565b95945050505050565b611ee081611d12565b82525050565b6000602082019050611efb6000830184611ed7565b92915050565b6000819050919050565b611f1481611f01565b8114611f1f57600080fd5b50565b600081359050611f3181611f0b565b92915050565b60008060408385031215611f4e57611f4d611988565b5b6000611f5c858286016119b3565b9250506020611f6d85828601611f22565b9150509250929050565b6000606082019050611f8c6000830186611a66565b611f996020830185611e7c565b611fa66040830184611a66565b949350505050565b600080fd5b600080fd5b600080fd5b60008083601f840112611fd357611fd2611fae565b5b8235905067ffffffffffffffff811115611ff057611fef611fb3565b5b60208301915083600182028301111561200c5761200b611fb8565b5b9250929050565b60008060006040848603121561202c5761202b611988565b5b600061203a868287016119b3565b935050602084013567ffffffffffffffff81111561205b5761205a61198d565b5b61206786828701611fbd565b92509250509250925092565b7f4e487b7100000000000000000000000000000000000000000000000000000000600052604160045260246000fd5b6120ab82611b83565b810181811067ffffffffffffffff821117156120ca576120c9612073565b5b80604052505050565b60006120dd61197e565b90506120e982826120a2565b919050565b600067ffffffffffffffff82111561210957612108612073565b5b602082029050602081019050919050565b600080fd5b600067ffffffffffffffff82111561213a57612139612073565b5b61214382611b83565b9050602081019050919050565b82818337600083830152505050565b600061217261216d8461211f565b6120d3565b90508281526020810184848401111561218e5761218d61211a565b5b612199848285612150565b509392505050565b600082601f8301126121b6576121b5611fae565b5b81356121c684826020860161215f565b91505092915050565b60006121e26121dd846120ee565b6120d3565b9050808382526020820190506020840283018581111561220557612204611fb8565b5b835b8181101561224c57803567ffffffffffffffff81111561222a57612229611fae565b5b80860161223789826121a1565b85526020850194505050602081019050612207565b5050509392505050565b600082601f83011261226b5761226a611fae565b5b813561227b8482602086016121cf565b91505092915050565b60008060006060848603121561229d5761229c611988565b5b60006122ab868287016119b3565b93505060206122bc868287016119b3565b925050604084013567ffffffffffffffff8111156122dd576122dc61198d565b5b6122e986828701612256565b9150509250925092565b7f4e487b7100000000000000000000000000000000000000000000000000000000600052603260045260246000fd5b7f4e487b7100000000000000000000000000000000000000000000000000000000600052601160045260246000fd5b600061235c82611992565b915061236783611992565b9250827fffffffffffffffffffffffffffffffffffffffffffffffffffffffffffffffff0382111561239c5761239b612322565b5b828201905092915050565b60006123b282611992565b91507fffffffffffffffffffffffffffffffffffffffffffffffffffffffffffffffff8214156123e5576123e4612322565b5b600182019050919050565b7f4e487b7100000000000000000000000000000000000000000000000000000000600052602260045260246000fd5b6000600282049050600182168061243757607f821691505b6020821081141561244b5761244a6123f0565b5b50919050565b7f416c726561647920766f74656400000000000000000000000000000000000000600082015250565b6000612487600d83611e32565b915061249282612451565b602082019050919050565b600060208201905081810360008301526124b68161247a565b9050919050565b7f506f6c6c20697320636c6f736564000000000000000000000000000000000000600082015250565b60006124f3600e83611e32565b91506124fe826124bd565b602082019050919050565b60006020820190508181036000830152612522816124e6565b9050919050565b7f506f6c6c206973206e6f74206163746976650000000000000000000000000000600082015250565b600061255f601283611e32565b915061256a82612529565b602082019050919050565b6000602082019050818103600083015261258e81612552565b9050919050565b7f496e76616c69642063686f696365000000000000000000000000000000000000600082015250565b60006125cb600e83611e32565b91506125d682612595565b602082019050919050565b600060208201905081810360008301526125fa816125be565b9050919050565b7f506f6c6c20686173206e6f742073746172746564207965742c20796f7520636160008201527f6e6e6f7420626574206f6e206974000000000000000000000000000000000000602082015250565b600061265d602e83611e32565b915061266882612601565b604082019050919050565b6000602082019050818103600083015261268c81612650565b9050919050565b7f506f6c6c2068617320656e6465642c20796f752063616e6e6f7420626574206f60008201527f6e20697420616e796d6f72650000000000000000000000000000000000000000602082015250565b60006126ef602c83611e32565b91506126fa82612693565b604082019050919050565b6000602082019050818103600083015261271e816126e2565b9050919050565b7f416d6f756e74206d7573742062652067726561746572207468616e2030210000600082015250565b600061275b601e83611e32565b915061276682612725565b602082019050919050565b6000602082019050818103600083015261278a8161274e565b9050919050565b600081905092915050565b60008190508160005260206000209050919050565b600081546127be8161241f565b6127c88186612791565b945060018216600081146127e357600181146127f457612827565b60ff19831686528186019350612827565b6127fd8561279c565b60005b8381101561281f57815481890152600182019150602081019050612800565b838801955050505b50505092915050565b600061283c82846127b1565b915081905092915050565b7f496e76616c696420706f6c6c2063686f6963652c20706c656173652073656c6560008201527f6374206f6e65206f662074686520706f6c6c2063686f6963657320746f20626560208201527f74206f6e00000000000000000000000000000000000000000000000000000000604082015250565b60006128c9604483611e32565b91506128d482612847565b606082019050919050565b600060208201905081810360008301526128f8816128bc565b9050919050565b600060408201905081810360008301526129198185611e43565b90506129286020830184611a66565b9392505050565b600061293b8385612791565b9350612948838584612150565b82840190509392505050565b600061296182848661292f565b91508190509392505050565b7f4e487b7100000000000000000000000000000000000000000000000000000000600052601260045260246000fd5b60006129a782611992565b91506129b283611992565b9250826129c2576129c161296d565b5b828204905092915050565b7f496e76616c696420706f6c6c20656e642074696d650000000000000000000000600082015250565b6000612a03601583611e32565b9150612a0e826129cd565b602082019050919050565b60006020820190508181036000830152612a32816129f6565b9050919050565b7f4174206c656173742074776f206f7074696f6e73207265717569726564000000600082015250565b6000612a6f601d83611e32565b9150612a7a82612a39565b602082019050919050565b60006020820190508181036000830152612a9e81612a62565b9050919050565b600082825260208201905092915050565b6000612ac182611b08565b612acb8185612aa5565b935083602082028501612add85611b24565b8060005b85811015612b195784840389528151612afa8582611bcd565b9450612b0583611be1565b925060208a01995050600181019050612ae1565b50829750879550505050505092915050565b6000606082019050612b406000830186611a66565b612b4d6020830185611a66565b8181036040830152612b5f8184612ab6565b9050949350505050565b600060ff82169050919050565b6000612b8182612b69565b915060ff821415612b9557612b94612322565b5b60018201905091905056fea2646970667358221220563397ed252f06eef794ea518522e101d9a8c993469c38ecdacab8b3b23f466664736f6c63430008090033",
  "immutableReferences": {},
  "source": "// SPDX-License-Identifier: MIT\npragma solidity ^0.8.0;\npragma experimental ABIEncoderV2;\nimport \"@openzeppelin/contracts/utils/structs/EnumerableSet.sol\";\ncontract PollBetContract {\n    using EnumerableSet for EnumerableSet.AddressSet;\n    struct Poll {\n        uint id;\n        address creator;\n        uint startTime;\n        uint endTime;\n        string[] choices;\n        uint[] choiceCounts;\n        bool isOpen;\n    }\n    struct Voter {\n        uint pollId;\n        address voterAddress;\n        uint choice;\n    }\n    struct Bet {\n        uint pollId;\n        string pollChoice;\n        address user;\n        uint amount;\n    }\n    // Events\n    event PollCreated(uint indexed id, address indexed creator, uint startTime, uint endTime, string[] options);\n    event PollClosed(uint indexed id, address indexed winner);\n    event BetPlaced(uint indexed pollId, string pollChoice, address indexed user, uint amount);\n    event RewardsDistributed(uint indexed pollId, address[] winners, uint[] rewards);\n    event VoteCasted(uint indexed pollId, address indexed voter, uint choice);\n    event Log(string message);\n    // Variables\n    uint public pollCount;\n    uint public betCount;\n    // mapping - to store data on blockchain\n    mapping(uint => uint) public pollBetTotal;\n    mapping(uint => mapping(address => uint)) public pollBets;\n    mapping(uint => uint[]) public pollWinners;\n    mapping(address => uint) public balances;\n    mapping(uint => Bet[]) public pollBetsList;\n    mapping(uint => mapping(address => bool)) public hasVoted;\n    mapping(uint => mapping(address => Voter)) public voters;\n    mapping(uint => EnumerableSet.AddressSet) internal voterAddressSets;\n    //Poll[] public polls;\n    mapping(uint => Poll) polls; // change to mapping\n    uint[] public pollCounts;\n    function createPoll(uint _startTime, uint _endTime, string[] memory _options) public {\n        _startTime = block.timestamp;\n        _endTime = block.timestamp + 86400;\n        \n        require(_endTime > _startTime, \"Invalid poll end time\");\n        require(_options.length > 1, \"At least two options required\");\n        uint numChoices; \n        numChoices = _options.length;\n        //uint[numChoices] memory choiceCountsArray;\n        uint[] memory choiceCountsArray = new uint[](numChoices);\n        //for (uint i = 0; i < numChoices; i++) {\n        //    choiceCountsArray.push(0);\n        //}\n        Poll storage newPoll = polls[pollCount];\n        newPoll.creator = msg.sender;\n        newPoll.startTime = block.timestamp;\n        newPoll.endTime = block.timestamp + 86400;\n        newPoll.choices = _options;\n        newPoll.choiceCounts = choiceCountsArray;\n        newPoll.isOpen = true;\n        pollCounts.push(pollCount);\n        emit PollCreated(pollCount, msg.sender, _startTime, _endTime, _options);\n        pollCount++;\n        \n        //Poll memory newPoll = Poll({\n        //    id: pollCount,\n        //    creator: msg.sender,\n        //    startTime: _startTime,\n        //    endTime: _endTime,\n        //    choices: _options,\n        //    isOpen: true\n        //});\n        //polls[pollCount] = newPoll;\n        //polls.push(Poll(newPoll.id, newPoll.creator, newPoll.startTime, newPoll.endTime, newPoll.choices, newPoll.isOpen));\n    }\n    function getPollVotersCount(uint _pollId) public view returns (uint) {\n        uint count = 0;\n        EnumerableSet.AddressSet storage voterAddresses = voterAddressSets[_pollId];\n        for (uint i = 0; i < EnumerableSet.length(voterAddresses); i++) {\n            //address voterAddress = EnumerableSet.at(voterAddresses, i);\n            count++;\n        }\n        return count;\n    }\n    function getPollInfo(uint _pollId) public view returns (Poll memory) {\n        Poll storage poll = polls[_pollId];\n        return poll; // change to not return vote counts for each choice\n    }\n    function voteOnPoll(uint _pollId, uint _pollChoice) public {\n        Poll storage poll = polls[_pollId];\n        \n        require(!hasVoted[_pollId][msg.sender], \"Already voted\");\n        require(poll.isOpen, \"Poll is closed\");\n        require(block.timestamp >= poll.startTime && block.timestamp <= poll.endTime, \"Poll is not active\");\n        require(_pollChoice > 0 && _pollChoice < poll.choices.length, \"Invalid choice\");\n        hasVoted[_pollId][msg.sender] = true;\n        Voter memory newVoter = Voter({\n            pollId: _pollId,\n            voterAddress: msg.sender,\n            choice: _pollChoice\n        });\n        voters[_pollId][msg.sender] = newVoter;\n        addVoterAddressSet(_pollId,msg.sender);\n        // increase the choiceCount variable for the choice that was voted on\n        poll.choiceCounts[_pollChoice]++;\n        emit VoteCasted(_pollId, msg.sender, _pollChoice);\n    }\n    function betOnPoll(uint _pollId, bytes32 _pollChoice) public payable { // Data location must be \"memory\" or \"calldata\" for parameter in function, but none was given\n        require(block.timestamp >= polls[_pollId].startTime, \"Poll has not started yet, you cannot bet on it\");\n        require(block.timestamp < polls[_pollId].endTime, \"Poll has ended, you cannot bet on it anymore\");\n        require(msg.value > 0, \"Amount must be greater than 0!\");\n        // Convert poll choice to uint\n        uint pollChoiceInt;\n        for (uint i = 0; i < polls[_pollId].choices.length; i++) {\n            if (keccak256(bytes(polls[_pollId].choices[i])) == _pollChoice) {\n                pollChoiceInt = i;\n                break;\n            }\n        }\n        require(pollChoiceInt > 0, \"Invalid poll choice, please select one of the poll choices to bet on\");\n        pollBetTotal[_pollId] += msg.value;\n        pollBets[_pollId][msg.sender] += msg.value;\n        betCount++;\n        pollBetsList[_pollId].push(Bet({\n            pollId: _pollId,\n            pollChoice: bytes32ToString(_pollChoice),\n            user: msg.sender,\n            amount: msg.value\n        }));\n        emit BetPlaced(_pollId, bytes32ToString(_pollChoice), msg.sender, msg.value);\n    }\n    function getBetCount(uint _pollId) public view returns(uint) {\n        return pollBetsList[_pollId].length;\n    }\n    function getTotalBetAmount(uint _pollId) public view returns(uint) {\n        uint totalBetAmount = 0;\n        for (uint i = 0; i < pollBetsList[_pollId].length; i++) {\n            totalBetAmount += pollBetsList[_pollId][i].amount;\n        }\n        return totalBetAmount;\n    }\n    function getOdds(uint _pollId, string calldata _pollChoice) public view returns(uint){\n        uint totalChoiceAmount = 0;\n        Bet[] storage bets = pollBetsList[_pollId];\n        for (uint i = 0; i < bets.length; i++) {\n            if (keccak256(bytes(bets[i].pollChoice)) == keccak256(bytes(_pollChoice))) {\n                totalChoiceAmount += bets[i].amount;\n            }\n        }\n        uint totalBetAmount = getTotalBetAmount(_pollId);\n        return totalBetAmount > 0 ? totalChoiceAmount / totalBetAmount : 0;\n    }\n    function closePoll() public {} //publish to blockchain as well\n    function distributeRewards() public {}\n    function bytes32ToString(bytes32 _bytes32) private pure returns (string memory) {\n        uint8 i = 0;\n        while(i < 32 && _bytes32[i] != 0) {\n            i++;\n        }\n        bytes memory bytesArray = new bytes(i);\n        for (i = 0; i < bytesArray.length; i++) {\n            bytesArray[i] = _bytes32[i];\n        }\n        return string(bytesArray);\n    }\n    function addVoterAddressSet(uint _pollId, address _voterAddress) private {\n        voterAddressSets[_pollId].add(_voterAddress);\n    }\n}",
  "sourcePath": "/Users/apurva/Desktop/Projects/contracts/PollBetContract.sol",
  "compiler": {
    "name": "solc",
    "version": "0.8.9+commit.e5eed63a.Emscripten.clang"
  },
  "schemaVersion": "3.4.13",
  "updatedAt": "2023-04-23T21:11:47.007Z",
  "devdoc": {
    "kind": "dev",
    "methods": {},
    "version": 1
  },
  "userdoc": {
    "kind": "user",
    "methods": {},
    "version": 1
  }
}